:020000040000FA
:10000000A8130010E1000000970500009305000010
:100010009505000029010000C11400000000000047
:10002000000000000000000000000000F3000000DD
:10003000F500000000000000F7000000F9000000DB
:10004000FB000000FB000000FB000000FB000000C4
:10005000FB00000075100000FB000000FB0000002A
:10006000FB000000FB000000FB000000FB000000A4
:10007000FB000000FB000000FB000000FB00000094
:10008000FB000000FB000000FB000000FB00000084
:10009000FB000000FB000000FB000000FB00000074
:1000A000FB000000FB000000FB000000FB00000064
:1000B000FB000000FB000000FB000000FB00000054
:1000C000FB000000FB000000FB000000DFF80CD08C
:1000D00000F018F8004800476D240000A813001035
:1000E0000648804706480047FEE7FEE7FEE7FEE7D2
:1000F000FEE7FEE7FEE7FEE7FEE7FEE7850F00000E
:10010000CD000000064C074D06E0E06840F001031A
:1001100094E8070098471034AC42F6D3FFF7DAFFB3
:10012000402E0000602E0000FEE700000448002181
:100130000170022101710249024808394860704784
:10014000140000100040000004480021017002214A
:1001500001710249024808394860704714000010D4
:10016000004000000E490160018A416080890D4A0B
:10017000002902EB40220C4842600AD08B18094A41
:1001800000F10801521C934204D80322027005209A
:10019000087170470A220270082008700A717047BF
:1001A000C8000010004000000C0000100A4A10B502
:1001B000092111708189094B03EB41215160028AA9
:1001C0005B1C54189C4202D8C0E9001210BD0021EB
:1001D00041600121017210BD0C00001000400000C0
:1001E00003480078082801D000207047012070479C
:1001F0000C000010817A01F07F01212917D1C17A0A
:10020000072914D2DFE801F0130406080C0E1400CD
:10021000FFF7A8BFFFF7CABF06490160062105E046
:10022000FFF792BF0349083901600121416070471F
:10023000FFF77CBF1400001010B5044802F05CFC0E
:10024000024903480E39486010BD00001A00001032
:10025000004000002DE9F0410646807A00F07F0062
:10026000212824D11A4DF17AA5F1080401296068EA
:100270000BD0022926D0032919D12879207008280B
:1002800015D1BDE8F04102F007BC318A0627B1B1B3
:10029000A0F58040C00B02F059FB4FF400720D49ED
:1002A000606802F045FD20B12F700A202871BDE87A
:1002B000F081308A6168084460600520F6E72770A5
:1002C0000820F3E709212971318A08446060EEE7CC
:1002D00014000010C80000100448807A10F07C0F51
:1002E00002D00248FFF7B6BF70470000540B001061
:1002F00000F0C0B800F0E0B800F0E5B8FFFFFFFF85
:1003000070B51A4C607A002818D12146A07A4A6844
:1003100000064FF001051DD58AB1402A00D94022C0
:100320008020216802F0AAFC6168091A61602268D5
:100330000244226002D1402800D1257270BD207A8B
:100340000028FBD000221146802002F097FC0020FC
:10035000207270BD002AFCD11146802002F08EFC74
:100360006572BDE87040FFF7B7BF0000540B001086
:1003700010B51B4C607A38B104F114014022BDE87D
:100380001040002002F0BEBB1549A07A4A68000662
:1003900015D462B10020216802F0B4FB616881428B
:1003A00014DB091A616021680844206010BD002236
:1003B0001146104602F0A6FB0028F7D006E02AB945
:1003C00000221146104602F09DFB18B1BDE8104016
:1003D00002F064BB01206072BDE81040FFF77CBFF3
:1003E000540B001010B508222049002002F08AFBAF
:1003F000082839D11D4800210A38417200F1140142
:100400000160018A4160817A11F07C0F03D0BDE860
:100410001040FFF7EFBEC17A0A2921D2DFE801F0D0
:100420000524202420091324171BBDE8104002F0E6
:1004300081BA007B00F032FC0022BDE8104011467A
:10044000802002F01BBCBDE8104002F03DBABDE8C0
:10045000104002F031BABDE81040012000F0CEBBE0
:10046000BDE8104002F01ABB10BD00005E0B00108A
:1004700000F037B810B50C4600F004F8002800D0A2
:10048000C46110BD01460020052905D2DFE801F056
:100490000305080B0E0007487047064820307047D8
:1004A000044840307047034860307047014880304E
:1004B0007047000000C0092010B5FFF7E3FF0028D7
:1004C00000D0406910BD70B515460C46FFF7DAFF45
:1004D000002805D001680DB1214300E0A14301606F
:1004E00070BD10B50C46FFF7CDFF002800D0846129
:1004F00010BD00F01F0201219140C0F34210FFF730
:10050000F7BE10B50446C0F34210FFF7F3FE04F047
:100510001F0201219140084000D0FF2010BD00F0D3
:1005200015B8012100F008B800F01F020121914028
:10053000C0F34210FFF79CBF00F01F02012393405D
:100540000A461946C0F34210FFF7D6BE1CB500217B
:100550008DF802108DF804108DF80310C0F34211CD
:100560008DF8001000F01F008DF80100684600F0C3
:100570001FF81CBD70B50C460546FFF7D2FF284694
:100580001CB1BDE87040FFF7CFBFBDE87040FFF77A
:10059000B0BFFEE7FEE7FEE700F01F020121914039
:1005A00040094FF0E02202EB8000C0F88011704754
:1005B000F0B502784178857852001B4E102901D39E
:1005C0001039521C4900032356F8224003FA01F760
:1005D000BC438D402C4346F822400278124E4178AD
:1005E000C57852004036102901D31039521C4900F9
:1005F00056F822408B409C438D402C4346F82240C5
:10060000017843780479084801226830012C50F8B9
:10061000214002FA03F204D034EA020440F82140F7
:10062000F0BD1443FAE7000000C002402DE9F0419C
:100630001E4D06460C46B5F90000FFF75AFFF0B212
:1006400040F0400000F020FC200E00F01DFCC4F340
:10065000074000F019FCC4F3072000F015FCE0B2DD
:1006600000F012FC952000F00FFC00244FF480579E
:10067000FF2000F009FC0646000609D4B5F9000089
:10068000FFF752FFFF2000F0FFFB3046BDE8F0818E
:10069000641CBC42ECDBB5F90000FFF745FFFF200E
:1006A00000F0F2FB4FF0FF30F0E70000A400001074
:1006B0002DE9F041284F0446B7F90000FFF719FF74
:1006C0007A2000F0E1FB002000F0DEFB0025284648
:1006D00000F0DAFB284600F0D7FB284600F0D4FBF8
:1006E000952000F0D1FB4FF48058FF2000F0CCFBA8
:1006F0000646000622D4FF2000F0C6FB000620605C
:10070000FF2000F0C1FB216841EA00402060FF208B
:1007100000F0BAFB216841EA00202060FF2000F0D1
:10072000B3FB216808432060B7F90000FFF7FCFE27
:10073000FF2000F0A9FB3046BDE8F0816D1C454567
:10074000D3DBB7F90000FFF7EFFEFF2000F09CFBC2
:100750004FF0FF30F0E70000A40000107CB5204D02
:10076000B5F90000FFF7C5FE482000F08DFB002022
:1007700000F08AFB002000F087FB012000F084FBE2
:10078000AA2000F081FB872000F07EFB00244FF4BC
:100790007A16FF2000F078FB8DF80000000612D4D6
:1007A00001246E46FF2000F06FFB3055641C052CC1
:1007B000F8DBB5F90000FFF7B7FEFF2000F064FB9F
:1007C0009DF800007CBD641CB442E2DBB5F900007A
:1007D000FFF7AAFEFF2000F057FB4FF0FF307CBD73
:1007E000A400001070B5194D06460C46B5F900007E
:1007F000FFF77FFEF0B240F0400000F045FB200E16
:1008000000F042FBC4F3074000F03EFBC4F30720B6
:1008100000F03AFBE0B200F037FB952000F034FB2B
:1008200000244FF48056FF2000F02EFB01060BD56C
:10083000641CB442F7DBB5F90000FFF775FEFF203A
:1008400000F022FB4FF0FF3070BD0000A40000104C
:100850002DE9F041124E07460D46B6F90000FFF7AC
:1008600048FEFF2000F010FBFE28FAD1002403E030
:1008700000F00AFB3855641CAC424FF0FF00F7DB78
:1008800000F002FBFF2000F0FFFAB6F90000FFF7CE
:100890004BFEFF2000F0F8FA0020BDE8F0810000D8
:1008A000A40000107FB500210920FFF79BFF88BB43
:1008B00010216846FFF7CCFF60BB7E227F2168468F
:1008C00001F07AFA1D49012410B1012827D029E04E
:1008D0008868032826D03E224921684601F06CFA38
:1008E00006462F223121684601F066FA054650225D
:1008F0005321684601F060FA04FA00F1AD1CAC40E7
:10090000701C60430246B1F5007F04D3480A50438F
:1009100004B070BD06E000FB01F2500AF8E78868F9
:10092000032801D00020F3E730224521684601F07A
:1009300043FA800200F58060EAE70000A40000109E
:100940002DE9F0411B4D07460E46B5F90000FFF7B3
:10095000D0FDFE2000F098FA002403E0385D00F09E
:1009600093FA641CB442F9DBFF2000F08DFAFF20FB
:1009700000F08AFAFF2000F087FA00F01F00052837
:1009800009D0B5F90000FFF7CFFDFF2000F07CFA99
:100990000120BDE8F081FF2000F076FA0028FAD0AF
:1009A000B5F90000FFF7C0FDFF2000F06DFA002050
:1009B000EFE70000A40000104FF400707047000043
:1009C00010B50B4C0020606000F070F840B1FFF7EC
:1009D00069FF60604FF400711020FFF727FE08B137
:1009E000012010BD034800F093F9002010BD000065
:1009F000A400001000093D0010B504460B488268B1
:100A0000012A0AD0022A08D0032A00D0002111208E
:100A1000FFF70CFE18B1012010BD4902F7E74FF4B3
:100A200000712046FFF714FF002010BDA400001045
:100A30000148406870470000A40000100348406867
:100A400008B100207047012070470000A40000108A
:100A500010B504460B488268012A0AD0022A08D041
:100A6000032A00D000211820FFF7E0FD18B1012073
:100A700010BD4902F7E74FF400712046FFF760FF11
:100A8000002010BDA400001010B51C4600F074F941
:100A90002046FFF744FD2046FFF743FD2046FFF7C1
:100AA00043FD0148048010BDA400001070B546F25B
:100AB000A81000F02DF9124DB5F90000FFF734FD34
:100AC0000024FF2000F0E0F9641C102CF9DB002169
:100AD0000846FFF7ABFD0024012805D1FFF73EFED5
:100AE000012804D0052806D02046AC6070BDBDE8C2
:100AF000704000F01FB8BDE8704000F003B800007F
:100B0000A400001070B500244FF480550021372058
:100B1000FFF78CFD00212920FFF788FD20B1641C20
:100B2000AC42F3DB002070BD01490120886070BD3C
:100B3000A4000010F8B500240E4D4FF08046B71405
:100B400000213720FFF772FD31462920FFF76EFDA7
:100B500020B1641CBC42F3DB002008E06846FFF7CC
:100B6000A7FD0098400001D5032000E00220A86006
:100B7000F8BD0000A400001007493022C1F8082287
:100B80000A1542EA0040C1F8100200BFD1F8000285
:100B9000C006FBD57047000000C000500849202265
:100BA000C1F80822120142EA0040C1F8100200BF59
:100BB000D1F800028006FBD5D1F81402C0B270470C
:100BC00000C0005007491022C1F80822120142EA71
:100BD0000040C1F8100200BFD1F80002C006FBD5EA
:100BE0007047000000C0005000B572B6F220FFF759
:100BF000C3FFF220FFF7D2FF62B600BD00B5034687
:100C000072B6D820FFF7B8FF1846FFF7DBFF62B6D1
:100C100000BD00B500F00FF840F001005DF804EBF6
:100C200000F048B800B500F006F820F001005DF8CB
:100C300004EB00F03FB800B572B6FE20FFF79CFF52
:100C4000FE20FFF7ABFF62B600BD00B572B601072C
:100C5000C90E41EAD0131846FFF78EFF1846FFF77A
:100C60009DFF62B600BD000072B64FEA00714FEA08
:100C7000D16141EAD010012101FA00F10648C0F823
:100C8000381200BFD0F800128906FBD5D0F8140244
:100C9000C0B262B67047000000C0005000B5034605
:100CA00072B6D020FFF768FF43F08000FFF78AFF9D
:100CB00062B600BD00B5034672B6FE20FFF75CFFCA
:100CC0001846FFF77FFF62B600BD00B50B4672B64F
:100CD0000107C90E41EAD01040F04000FFF74CFF79
:100CE0001846FFF76FFF62B600BD00B5034672B647
:100CF000F320FFF741FF1846FFF764FF62B600BD1F
:100D000000B572B6FA20FFF737FF62B600BD0000EB
:100D10001649174AB1FBF0F310B51360516800296A
:100D200023D0B0F5C07F08D8FE2008610868C0B2A3
:100D30000860086840F47F4016E00E4CA04204D9D9
:100D4000022008610868C0B20EE003F0FE000861EE
:100D50000868C0B2086008691268B2FBF0F0401E73
:100D60000A68C0B242EA0020086010BD40787D01E8
:100D7000B000001020BCBE002DE9F0410746012460
:100D80000E4600F01F00154604FA00F12246C7F394
:100D90004210FFF7B1FA06F01F0004FA00F100223A
:100DA000C6F34210FFF7A8FA05F01F0004FA00F19D
:100DB0000122C5F34210FFF79FFA2E482E49002268
:100DC0002E4C092F02D0122F1DD020E0082E1ED14C
:100DD000072D1CD12A4B6360036823F47C23036036
:100DE000036843F42823036001F5D471086820F4F4
:100DF00040100860086840F4801041F8E409086871
:100E000040F4806026E0112E01D10F2D02D06260E7
:100E1000BDE8F0811B4B6360036823F0404303602F
:100E2000036843F000430360436823F03C034360DE
:100E3000436843F02803436001F5D671086820F445
:100E400040600860086840F4806041F8E80908687C
:100E500040F400100860606807210160426042F2BF
:100E60001070FFF755FF6068416841F00201416072
:100E7000CEE7000000C0024000C00F40B0000010EC
:100E800000000340008008400749024600204968EE
:100E9000002908D0C8688007FCD58A60C868400768
:100EA000FCD58868C0B27047B00000102F48D0F859
:100EB00088106FEA11618A072D49D0F80C2102F0E1
:100EC00003020CD02AB1012A41D0022A45D0032ABC
:100ED0002DD1D0F80401274AC0B2401C43E02AB10A
:100EE000012A12D0022A23D0032A20D150F8882FB9
:100EF000C2F30742C36F521CDBB25B1C00685A434B
:100F0000C0F30E00401C1C4B0DE050F8882FC2F3BC
:100F10000742C36F521CDBB25B1C00685A43C0F32C
:100F20000E00164B401C5843B0FBF2F008607047AF
:100F300050F8882FC2F30742C36F521CDBB25B1C10
:100F400000685A43C0F30E00401C0004ECE7D0F8E0
:100F500004010B4AC0B2401C05E0D0F804014FF474
:100F60000042C0B2401CB2FBF0F0DFE700C00F400F
:100F70000000001000093D0000127A0000366E01EA
:100F8000001BB70070B5364C86B02020C4F8A00115
:100F9000D4F8A001800603D5D4F8A0014006FBD503
:100FA0000025C4F8A851C4F8AC510126C4F80C615E
:100FB0000220C4F8040136202A4A0590694605A893
:100FC000904701984FF0AA0110F4801F4FF0550090
:100FD00001D00E2200E0244A44F8842FA160A060D2
:100FE00044F8046DE160E060A4F18004D4F8882046
:100FF0005201FBD5032244F8802FE160E060A4F1A8
:10100000800400BFD4F8883013F0407FFAD004F198
:10101000A00423236360E160E0602660E160E0609B
:10102000A4F1A004D4F8A8305B05FBD544F8A02FA8
:10103000E160E060B4F1A004D4F8A80010F4407FAF
:10104000FAD0FFF733FF0948C4F8C400C4F8C85108
:1010500045F23A0020600648056006B070BD000009
:1010600000C00F40F11FFF1F1800010008842080FE
:1010700008ED00E000F014B9007D400601D5002025
:10108000704701207047806840F2CF3108407047B8
:101090000349884201D1087D7047007D70470000F8
:1010A0000000014010B50024072914D2DFE801F048
:1010B0000406080A0C0E110001240CE002240AE0C8
:1010C000042408E0082406E0802404E04FF480743F
:1010D00001E04FF400740949012A05D088424168B3
:1010E00005D140F28F3204E04168214303E040F231
:1010F0000732A2431140416010BD000000000140D2
:10110000FEB54B4E0024054634704A4844600460E6
:1011100000F502704460046000940194694628461A
:10112000029400F0F3F99DF80400621E70B10128EA
:101130000ED002280ED003203F49B36863B1012BC3
:1011400018D0022B24D0032B3DD12FE00120F3E750
:101150000220F1E70020EFE751F8C42F42F0080227
:1011600041F8E42B0A6822F0C00242EA80100860CD
:10117000052228E051F8C42F42F0100241F8E42B78
:101180000A6822F4407242EA0020086006221AE04F
:1011900051F8C42F42F0807241F8E82B0A6822F41B
:1011A000403242EA0040086007220CE051F8C42FA8
:1011B00042F0007241F8E82B0A6822F4402242EA29
:1011C0008040086008227168087B40F08000087346
:1011D000BDF80600000A0871BDF806000870087B1B
:1011E00000F07F0008739DF8080000F00F039DF8E1
:1011F000090063F31F1081F82800072008720320FC
:10120000087381F8244091F8300040F0800081F8A4
:101210003000802A0ADA02F01F01012088405109BB
:101220004FF0E02202EB8101C1F800012846FEBD2B
:10123000B80000104407001000C00F400648406886
:10124000007D400601D500207047044801684068D1
:10125000081AC0F308007047B800001044070010D7
:101260000948806840B1012808D0022808D0032826
:1012700008D10820FFF790B90520FBE70620F9E721
:101280000720F7E770470000B800001010B51446BB
:1012900000F028F82046BDE81040FFF731BF0000FD
:1012A00010B50F4C6068FFF7EEFE00F00E00062848
:1012B00009D004280ED00C280CD002280ED1BDE88D
:1012C000104000F0A3B86068FFF7E2FE10F09E0F38
:1012D00004D0FEE7BDE8104000F078B810BD000073
:1012E000B80000102DE9FC41334A0446012050703B
:1012F00000238DF804308DF80330022913D0022525
:101300002E4E0323A9B12E4F0A2917D0DFF8B4C0FF
:101310000F2918D019291DD040291ED0482921D0C5
:101320009C2926D027E0032C25D19360264B5360BF
:101330000DE0012C1FD1C2E9016317E00B2C1AD17B
:10134000C2E9017503E0102C15D1C2E901C08DF886
:10135000020019E01A2C13D00DE0412C0BD1C2E988
:1013600001C003E0492C06D1C2E901758DF8025095
:101370000AE09D2C04D04FF0FF309060BDE8FC8166
:10138000C2E901638DF80230C1F342108DF800000C
:1013900001F01F008DF801006846FFF709F9C4F35A
:1013A00042108DF8000004F01F008DF8010068461F
:1013B000FFF7FEF8E2E70000B800001000C00940A7
:1013C000008009400000014000C000400D4810B5F9
:1013D00042680D48117DC90713D013784168C1F3E5
:1013E00008040168491CC1F308018C42F2D001686D
:1013F0004418491C016023720168C1F308010160AF
:10140000E8E710BDB80000104C09001070B51B4D86
:10141000002201216868FFF745FE194C6868FFF754
:101420002BFE0128FAD0686821686268C1F30801C0
:10143000C2F3080291420AD061686218491C6160D7
:10144000117A01706168C1F308016160ECE72168FD
:101450006268C1F30801C2F30802914206D100227A
:101460000121FFF71FFE0020287070BD01212970A7
:10147000BDE870400A46FFF715BE0000B800001036
:10148000440700100B4810B50078082803D0062840
:1014900001D007280DD101F0FFFABFF34F8F0648A6
:1014A0000168064A01F4E06111430160BFF34F8F08
:1014B000FEE710BD0C0000100CED00E00400FA0582
:1014C000FEE74FF08040017821F004010170704781
:1014D00072B6AA21480701725521017262B670479F
:1014E0004FF080400078C0F38000704702E008C8E9
:1014F000121F08C1002AFAD170477047002001E08E
:1015000001C1121F002AFBD1704700002DE9F34FE3
:1015100083B04FF00009C1F8009088463A4903981B
:10152000884201D2032000E0012083460398000195
:1015300001903649012000FA0BF009680125B1FB42
:10154000F0FA002601E0002645E0019871194843B1
:10155000690001FB0AF1B1FBF0F0401C440809F1FD
:101560000109B4F5803F35D204B9012416B1022C2B
:1015700000D2022404FB06F10903B1FBF5F101EBF3
:1015800004314FEA4A10B0FBF1F0C000009003991B
:1015900001F069FA0746D8F80000039901F063FAF0
:1015A000874217D20098C8F8000088F804B0A8F85D
:1015B000064088F8085088F8096003990098884226
:1015C0001ED001F050FA00EB400041020398B1FB3D
:1015D000F0F0A8B1761CAE42B7D36D1C102DB2D37B
:1015E000D8F80000039901F03EFAC8214843039956
:1015F000B0FBF1F020B1ABF1010BBBF1040F98D3BC
:1016000005B04846BDE8F08F40420F0000000010D2
:1016100010B504460A464078012304F1300100F079
:1016200091FB08B1032010BDB4F82E02A0F52A41A9
:10163000553901D0022010BD94F86600B4F8671047
:1016400040EA01210848B0EB012F08D094F882103D
:10165000B4F8832041EA0221B0EB012F01D1002030
:1016600010BD012010BD000000464154F0B5ADF59D
:10167000017D1D49002000F0BFFB1C4E01221C48CB
:10168000316800F0C9FB00280ED14FF400756F01DE
:101690003C46809580AB2A466946154800F057FCC9
:1016A00028B1134800F09FFB0DF5017DF0BDA4F5B6
:1016B0008040C00B01F04AF92A466946204601F0F5
:1016C00037FB80980444A842E4D0094800F08BFB23
:1016D000BC42E9D9706800F086FD8090D6E900012F
:1016E00000F0C8FC8090DFE7C802001094000010F2
:1016F000F80400102DE9F0470B4601681546002656
:101700000A78303A092A02D84C783A2C01D01E6067
:1017100006E0891C01601E6012B10B20BDE8F08755
:10172000754804688CB11C60207820B1607800F0A6
:101730001CFBC1070BD02670B1463046667000F026
:10174000DDFAC10708D00320E8E70C20E6E70DB179
:10175000400704D40020E1E71DB1400701D50A206D
:10176000DCE700210D462046FFF752FF01280CD18F
:1017700004F5F7700179E9B3017AD0F8090041EA7C
:10178000002529462046FFF743FF032801D088BBE8
:1017900001E00120C2E7B4F83B00B0F5007F58D16A
:1017A000B4F8460028B994F85400D4F8551040EA2B
:1017B0000120E06194F840108446E170012901D0D5
:1017C000022946D1484394F83D10A17091B14B1EB7
:1017D00019423ED1B4F841202281130739D1B4F81F
:1017E00043602EB994F85030D4F8516043EA06268D
:1017F000E78F00E02DE067B33B1803EB12139E4226
:1018000027D3F61AB6FBF1F119B3012640F6F678A4
:10181000414500D302264FF6F678414500D3032612
:101820002B44A362891CEB19A1612362032E12D001
:101830007AB118446062022E18D001F0010001EB69
:10184000410100EB510000BF00F2FF10BCEB502F34
:101850000ED20D2062E7002AFBD194F85C00D4F888
:101860005D2040EA022060628800EDE74800EBE777
:101870004FF0FF30C4E903904F46032E31D167711A
:10188000B4F86000012342196261607804F130010C
:1018900000F058FA28BBB4F82E02A0F52A415539B9
:1018A0001FD194F83000D4F8311040EA01201349D8
:1018B000884216D194F81402D4F8151240EA012097
:1018C0000F4988420DD194F81C02D4F81D1240EA49
:1018D0000120E06094F81802D4F8191240EA0120BF
:1018E000206105492670091F0888401C0880E08097
:1018F000E76227712EE70000080000105252614194
:10190000727241618269891E921E8A4201D800204A
:101910007047826A807801FB002070472DE9F04112
:101920000F00064606D000F032FD022809D2012041
:10193000BDE8F081F46814B1B069A04205D8012473
:1019400003E0B1698142F3D83C462546B0696D1C7D
:10195000A84202D80225022C0AD32946304600F0BC
:1019600016FD38B1411CE3D00128E1D0A542EDD1EC
:101970000020DDE76FF070422946304600F0EEFEB1
:1019800030B957B12A463946304600F0E7FE20B15B
:1019900001280BD001252846CAE7F5603069411CB3
:1019A000F9D0401E306101207071F4E74FF0FF352F
:1019B000F1E700002DE9F04789460C6800E0641C5F
:1019C00021782F29FBD05C29F9D085690B222021B1
:1019D000284600F026FE002001460E460823A25DA0
:1019E000761C202A33D92F2A31D05C2A2FD02E2AD8
:1019F0000BD0984238D2802A05D3274F41F00301FB
:101A00003A4412F8802C25A707E0082B2CD1082097
:101A10000B238906090EE2E77F1C97F800C0BCF192
:101A2000000F02D09445F7D11EE0A2F14107192F13
:101A300002D841F0020107E0A2F16107192F03D893
:101A4000203A41F00101D2B22A54401CC7E7264493
:101A5000C9F80060202A01D8042200E0002218B151
:101A60002878E52803D004E00620BDE8F0870520AB
:101A70002870082B01D18806010E01F0030001280F
:101A800001D142F01002C1F38100012801D142F0DE
:101A90000802EA720020E8E7A42D0000222A2B2C7D
:101AA0003A3B3C3D3E3F5B5D7C7F00000CB5002136
:101AB0000091814203D201910099491CF8E70198F5
:101AC0000CBD0120FEF71DBD2DE9F0410446C08884
:101AD0000F46401C0604360C2DD0206958B3310740
:101AE0005ED1401C2061E168206829B18278521ED5
:101AF00012EA161F04D053E00089B0421BD94FE010
:101B000000F045FC054601281AD9681C33D020682E
:101B10008169A9423ED877B1E168FFF7FFFE050071
:101B20000CD0012D0CD0681C25D00021206800F0BD
:101B30007FFD00BB06E00420BDE8F0810720FBE745
:101B40000220F9E720684FF400723030002100F0E5
:101B500068FD29462068FFF7D5FE216800274FF071
:101B60000108C8620FE000BF80F8048000212068EF
:101B700000F05EFD08B10120DEE72068C16A491C63
:101B80007F1CFFB2C16220688178B942ECD8C16A7B
:101B9000C91BC162E56029462068FFF7B3FE2061DA
:101BA000E68006F00F013022206802EB4111084464
:101BB00060610020C0E710B50446042015E02068ED
:101BC00000F036FDB0B96269117861B1E52904D041
:101BD0002E2902D0D17A09070ED500212046FFF721
:101BE00073FF10B106E0042004E021690029E6D16A
:101BF000002801D00021216110BD70B504460021EC
:101C000000F03DF80EE02169206800F011FD0500AC
:101C10001FD160690078E52807D030B10121204646
:101C2000FFF752FF0500EED013E02169206800F0B5
:101C3000FFFC05000DD1666920220021304600F02E
:101C4000F0FC0B223046A16900F0E2FC2068012183
:101C50000171284670BD10B50446C18800F00FF828
:101C600000280BD12169206800F0E2FC002805D192
:101C70006269E521117022680121117110BD70B5F2
:101C80000D46C1808168044601291ED02068826902
:101C90008A421AD921B90278032A04D1416A11B1C2
:101CA0008078060117E0E1600189A9420DD9406AF8
:101CB00017E0206800F06BFB0146401C07D00229AA
:101CC00003D320688069884203D8022070BD0120B8
:101CD00070BDA81B85B2B542EBD2E1602068FFF76A
:101CE00011FE00EB1510206105F00F013022206875
:101CF00002EB411108446061002070BD10B518B9B5
:101D0000FEF75EFE002800D0012010BD10B514467D
:101D100008B1042010BD052910D2DFE801F0110838
:101D2000030B1100FEF748FE80B2208005E0FEF7AD
:101D30007FFE01E0FEF740FE206008B1012010BDEB
:101D4000002010BD70B51C4615460E4648B1042053
:101D500070BD29463046FEF74FFE641EE4B205F51D
:101D60000075002CF5D1002070BD10B518B9FEF734
:101D700065FE002800D0012010BD70B51C46154638
:101D80000E4648B1042070BD29463046FEF760FE7D
:101D9000641EE4B205F50075002CF5D1002070BD7D
:101DA00030B4044B342410C307C330BC191D0148A0
:101DB00000F04EBB1C050010F0B505468C1A002043
:101DC000641C01460F270BE05318A7EBE30603F052
:101DD0000703AE5DDE4006F001038B401843491C4B
:101DE000A142F1DBF0BD10B5044600F0C0F90028B7
:101DF00001D10021216010BD08B10B207047054AB8
:101E00000023106800B1037001B10B700020116055
:101E100070470000080000102DE9F7478BB007005D
:101E20000ED04FF0000802F01F0626F001026946AE
:101E30000CA8C7F80080FFF75DFC050004D084E023
:101E400009200EB0BDE8F08707A8069068460C99F7
:101E500000F048FA059C050001D104B9062516F0EA
:101E60001C0F4AD055B1042D03D16846FFF7C5FEBB
:101E70000546059C46F0080645B166E0E07A10F09C
:101E8000110F44D1700701D508255EE0300744D515
:101E900000F0DAFAA073010AE173010C2174000E5C
:101EA000607484F80B8084F81C8084F81D8084F8AA
:101EB0001E8084F81F802146009800F0CDFA8146EC
:101EC0000021204600F059FD00990120B9F1000FD2
:101ED000087120D000984946D0F82CA000F0BBFC37
:101EE000050032D10099A9F10100C860514600985F
:101EF00000F09EFB05000CD027E035BBE07AC10660
:101F000001D5042521E0B10703D5C00701D007257D
:101F10001BE0300701D546F0200600982146C06A34
:101F2000C7E90704BE71009800F096FA3861207F77
:101F3000D4F81D1040EA0120C7E90280C7F81880D4
:101F4000009838600098C088B880284679E72DE965
:101F5000F0470F460021984615460446196000F0E8
:101F6000C3FE002803D1A079010602D50220BDE8F6
:101F7000F087C00706D0D4E90201081A854275D956
:101F8000054673E00720F2E7A068C10547D1226843
:101F90009178491E01EA502111F0FF0609D118B3CA
:101FA0001046616900F0F3F902281FD3411C43D0A9
:101FB000606161692068FFF7A5FCB8B100EB060A13
:101FC0005FEA552929D0206806EB090281788A4208
:101FD00001D9A1EB060909F0FF03407852463946C2
:101FE000FFF7B0FE40BB06E02069DDE7A07940F0D6
:101FF0008000A071BAE72168087958B1CA6AA2EBDB
:102000000A00484506D2303107EB40204FF40072F9
:1020100000F0FEFA4FEA49261EE0C4F818A0208915
:10202000C0F30800C0F50076AE4200D92E46A16983
:10203000206800F0FDFA28B1A07940F08000A0717E
:10204000012094E720892168C0F308003030014462
:102050003246384600F0DCFAA06837443044A060CD
:10206000D8F800008119AD1BC8F80010002D8BD1E5
:1020700000207CE733B599B00C46012201A919A8CC
:10208000FFF738FB002852D10198089015A8079057
:1020900001A8199900F026F9002848D10698E8B35C
:1020A00000F10B0115220FA800F0B2FA1C2201A9C1
:1020B00008A800F0ADFA214608A800F013F970B3A3
:1020C000042834D108A8FFF798FD00282FD10D9CD3
:1020D00013220DF13E0104F10D0000F099FA9DF874
:1020E0003C00012540F02000E072019805710A993A
:1020F0000398884232D0E07AC0062FD52146019855
:1021000000F0AAF901460198FFF7FCFB010012D08C
:10211000019800F08DFA019A503201E006E008E0E3
:10212000002804D150782E2807D017E004201BB0D7
:1021300030BD0820FBE70220F9E70198007803286A
:1021400006D101990A98496A884201D1002100E02C
:102150000A99104600F011FC0198057101A8FFF7DB
:102160007AFD0028E3D1019800F021FCDFE770B58B
:10217000044600F0B9FD002834D1A179890631D593
:10218000E169206800F054FA00282BD1256AE87A2A
:1021900040F02000E872207B2877A089000A687749
:1021A000E068000CA877E068000EE877284621690F
:1021B00000F0E3FB00F048F9A875010AE975010C8D
:1021C0002976000E68760020A874E874A07920F0C3
:1021D0002000A0712168012008712068BDE87040CE
:1021E00000F0E5BB70BD71B591B00122694611A840
:1021F000FFF780FA040043D10EA8069068461199B3
:1022000000F070F804003BD1059E56B1F07AC0078B
:1022100000D007243146009800F01EF9054614B19D
:102220002EE00624F6E7F07AC00619D5022D01D279
:10223000022425E01C22694607A800F0E9F90221E2
:1022400007A80995FFF71BFD040019D107A8FFF7A0
:10225000B2FC040002D0042C02D011E007240FE0ED
:102260006846FFF7F8FC04000AD12DB12946009812
:1022700000F0F1FA040003D1009800F098FB044646
:1022800012B0204670BD70B5054672B604246FF4D6
:10229000D02001E0102C03D2220302F6FF7201E0ED
:1022A00000EBC4328A4218D9102C01D2200302E07C
:1022B000E003A0F5E020884209D121462A460846DD
:1022C00000F040FA21462A460846FFF769FD2146FC
:1022D0002A46084600F036FA02E0641C1D2CD9D9C3
:1022E00062B670BD73B50446019908782F2801D0F5
:1022F0005C2801D1491C01910025A5600198007856
:10230000202805D200212046FFF7B9FC65617CBD7D
:1023100001A92046FFF74EFB0028F8D100212046F6
:10232000FFF7ADFCF8B92169206800F081F9D0B958
:1023300061690A782AB1CA7A12070ED40A23A269FF
:1023400003E004200FE05B1E06D311F8015B12F8D6
:10235000016BAD1BF7D000E02DB100212046FFF747
:10236000B3FB0028DFD0A169C97A28B10428CED1F7
:102370004907CCD405207CBD4907FCD46169C87AE3
:10238000C006F7D5206800F067F8A060C0E72DE927
:10239000F0410D460446022902D3A069A84202D8A2
:1023A0000120BDE8F0812078012804D0022826D041
:1023B000032837D12FE0206A05EB550600EB5621A4
:1023C000204600F035F968BBC6F308002044761CAF
:1023D00090F83070206A00EB5621204600F028F972
:1023E00000BBC6F308002044E90790F8300047EA34
:1023F000002001D00009D4E7C0F30B00D1E7206A28
:1024000000EB1521204600F013F958B9E8B204EBAF
:102410004000008EC5E7206A00EBD511204600F091
:1024200007F910B14FF0FF30BBE740F2FF1000EAB0
:102430008500204490F83010D0F8310041EA0020A7
:1024400020F07040ADE7000000487047A1A16DB9D1
:10245000004A1047F11FFF1F0246488B1278032ADB
:1024600002D1898A40EA01407047000008B5FFF7B1
:102470002FF87A20FEF753F87A20FEF752F87920E9
:10248000FEF74DF87920FEF74CF83420FEF747F8B8
:102490003420FEF746F83720FEF741F83720FEF7E4
:1024A00040F83220FEF73BF83220FEF73AF83520AC
:1024B000FEF735F83520FEF734F83820FEF72FF810
:1024C0003820FEF72EF83A20FEF729F83A20FEF7DA
:1024D00028F84420FEF723F84420FEF722F80021D4
:1024E0004420FEF747F84520FEF719F84520FEF78F
:1024F00018F800214520FEF73DF84620FEF70FF8BA
:102500004620FEF70EF800214620FEF733F8322071
:10251000FEF705F83220FEF704F800213220FEF71E
:1025200029F83320FDF7FBFF3320FDF7FAFF0021E8
:102530003320FEF71FF83420FDF7F1FF3420FDF7BC
:10254000F0FF00213420FEF715F83520FDF7E7FFF6
:102550003520FDF7E6FF00213520FEF70BF81F20A0
:1025600000F0F4F9274C022122460320FEF78EFEEC
:102570004FF480500090401E0090FCD106230722AB
:1025800008210920FEF780FAFEF71AFA08B9FFF7CA
:102590006DF8FFF796FA50B1FEF7A2FF10B1FEF703
:1025A00090FF04E04FF480400068401C01D100F02F
:1025B000ECF9FEF743FE0028FBD100BFFEF73EFE1C
:1025C0000028FBD1FEF74CFE00F068F822460221FD
:1025D0000320FEF75BFE00BFFEF730FE0028FBD1B4
:1025E0004FF480200090401E0090FCD1BFF34F8F2D
:1025F00005480168054A01F4E06111430160BFF339
:102600004F8FFEE7A08601000CED00E00400FA0504
:1026100004E000BF11F8013B00F8013B521EF9D263
:102620007047C9B201E000F8011B521EFBD270478F
:102630002DE9F041C56A0F460446BD422BD02179F1
:1026400004F13008D9B1607801232A464146FFF7EA
:1026500094FBE0B900202071D4E907100844A84297
:102660000DD9E67809E0E0690123054460782A463F
:102670004146FFF782FB761EF6B2012EF3D857B122
:10268000607801233A464146FFF75CFB10B1012018
:10269000BDE8F081E7620020FAE7000070B54FF472
:1026A00080442548FFF702FA2448046024480121A9
:1026B0000160AA21C1605522C260A0F1800000BF64
:1026C000D0F888309B01FBD4002340F8803FC160E4
:1026D000C260A0F1800000BFD0F88850ED01FBD4AB
:1026E00040F8A03FC160C260A0F1A000D0F8A810DF
:1026F0008905FBD40168C1F30B010160016841F455
:10270000A0410160C0F80431C0F80C31C0F8A0311C
:102710004FF47A70FFF7CAF9BFF35F8FBFF34F8FA3
:10272000BFF36F8F206880F3088844F204000068CC
:10273000BDE8704000470000C0C62D0008ED00E075
:1027400080C00F4030B4044B322410C307C330BCE8
:10275000191D0148FFF77CBE1C0500102DE9F0474C
:1027600017460D460446022902D3A069A84202D8A2
:102770000220BDE8F087217807F0FF084FF001093B
:10278000012908D0022938D0032947D05FF0020080
:1027900084F80490EDE7206A05EB550600EB56211E
:1027A0002046FFF745FF0028F2D1C6F30800204479
:1027B0003030E90703D0017868F31F1100E0394693
:1027C000017084F80490206A761C00EB56212046A4
:1027D000FFF72EFF0028DBD1C6F30801214430317A
:1027E000EA0702D0C7F3071205E00A78C7F303230C
:1027F00002F0F0021A430A70CAE7206A00EB1521C2
:102800002046FFF715FF0028C2D1E9B204EB4101D1
:102810003A0A81F8308081F83120B9E7206A00EB6C
:10282000D5112046FFF704FF0028B1D140F2FF1177
:1028300001EA85010A1930324FF07043D2F80110D5
:1028400003EA0121394311700B0A53700B0C93708A
:10285000090ED1709CE72DE9F0410E46074602298A
:1028600018D3B869B04215D900254FF001081DE012
:1028700031463846FFF78BFD04001AD0012C09D0F1
:10288000601C09D0002231463846FFF767FF05007B
:102890000FD103E002250CE001250AE03869411C54
:1028A00003D0401C386187F805802646B869B042DD
:1028B000DED82846BDE8F0810249012008701439AD
:1028C00048607047680B001070B5184881890C0A81
:1028D000CBB217490022096820E04E78A6421CD1ED
:1028E000012E0CD0022E04D0042E05D0052E04D1CA
:1028F00002E04A79134600E08A789A420CD10160DE
:10290000022C07D0097841600A46018A8A4200DD1C
:10291000416070BD4988F6E7521C29440D78002DAE
:10292000DBD1002141600121017270BD540B001008
:10293000C4000010044800214170017002490220C7
:102940001439486070470000680B001010B5002172
:102950007920FDF70FFE00213420FDF70BFE00214A
:102960003720FDF707FE00213220FDF703FE00218E
:10297000BDE810403520FDF7FDBD81760A0AC2761C
:102980000A0C0275090E4175704710B5FDF754FC2D
:1029900000F088F800F06EF801E000F011F9FDF7A2
:1029A0001FFC0028F9D0BDE8104000F075B82DE9F3
:1029B000F04104460021FFF73BFE050050D120788E
:1029C000032846D16079F0B3002604F130004FF4BB
:1029D000007231460746E662FFF723FE552084F871
:1029E0002E02AA2084F82F02522084F8300084F8A6
:1029F0003100612084F83200412184F833107222C2
:102A000084F8142284F8152284F8161284F8170228
:102A1000206984F81802010A84F81912010C84F85C
:102A20001A12000E84F81B02E06884F81C02010AE6
:102A300084F81D12010C000E84F81E1284F81F0287
:102A40006078012300E004E039466269FFF795F9F8
:102A50006671002260781146FFF758F900B1012530
:102A60002846BDE8F081884201D3401A7047081A11
:102A700070470000074910B50C20086040218020F5
:102A800000F078F84021002000F074F8BDE8104014
:102A9000FEF7BFB804C20050FEF7C4B88021002082
:102AA000FEF713B9114810B5016841F0004101600B
:102AB0000F48016841F012010160001D01681229F0
:102AC000FCD10C4C606820F070506060606840F091
:102AD000A0506060FEF7A6F8206920F44030206125
:102AE000206940F48020206110BD0000C4C00F4068
:102AF000F4CF005000C00240014908607047000058
:102B0000C40000102DE9F041002572B600F00F035B
:102B1000012404EB8304164BC3F82842D3F8204267
:102B20002405FBD5D3F82042C4F30906964203DD01
:102B300062B63046BDE8F0810EB1002410E0D3F853
:102B400018120FE0A70701D1D3F818520D552D0A1E
:102B5000E743BF0703D1D3F82872FF0702D0641CF4
:102B60009442EFDBFEF771F8FEF73EF8E0E7000075
:102B700000C0005030B572B6104A4FF48073136035
:102B80004FEA00744FEAD46444EAD0140120D56BB4
:102B900000FA04F00543D56314645164A2F502728F
:102BA00062B600BFD2F80012C905FBD502F5027269
:102BB0001360D16A0843D06230BD000008C20050E3
:102BC0007CB52D4CD4F80002C00702D00120C4F817
:102BD0000802D4F80002000713D50820C4F8080240
:102BE000FEF729F8C0060CD5FEF74CFC40218020EA
:102BF000FFF7C0FF40210020FFF7BCFF0220FEF7D7
:102C000074F8D4F80002400734D5D4F83052E807FD
:102C100011D00020FEF728F8410702D5FDF7E2FBAE
:102C200009E0C00702D0FDF7A3FB04E008226946D3
:102C30000020FFF767FFA80706D58020FEF714F8ED
:102C4000C00701D1FDF75CFBA80810D003250826BA
:102C5000D4F83002304206D0E807C5F3430141EA18
:102C60001060FEF701F86D1C7600202DF0DB0420CB
:102C7000C4F808027CBD000000C0005070B515000B
:102C800002464FF0000472B600F00F004FF002034E
:102C900003EB80031348C0F82832C0F8245209D14E
:102CA0000FE0CE7851F8043B66F31F63C0F81C3286
:102CB00004F10404D0F828329B0705D5AC42F0DBC0
:102CC00002E00021C0F81C121046FDF7BEFFFEF71F
:102CD00017F8BFF36F8F62B6AC4201DD284670BDB6
:102CE000204670BD00C0005010B5016829B10A78B7
:102CF0001AB1CA888088824201D0092010BD487864
:102D0000FFF733F8C007F9D0032010BD70B572B6D5
:102D10003325064C2560C4E90330C4E9011204F1EF
:102D200014012046FFF794FB62B670BD1C0500102D
:102D30002DE9F041184C236803B920600020174D9D
:102D4000636803E00F5C1E18401CAF559042F9D336
:102D500098184FF40078606040451AD1104E4FF437
:102D60007A7721683068B0FBF7F0FFF78CFA0B4DEB
:102D7000143D286800280DD130684346B0FBF7F0B9
:102D8000064A2168FFF7C2FF2868002802D1606068
:102D900020600020BDE8F0819C0000104405001078
:102DA00000000010809A90418E418F804545454932
:102DB00049498E8F9092924F994F555559999A9BA8
:102DC0009C9D9E9F41494F55A5A5A6A7A8A9AAAB22
:102DD000AC21AEAFB0B1B2B3B4B5B6B7B8B9BABB47
:102DE000BCBDBEBFC0C1C2C3C4C5C6C7C8C9CACBAB
:102DF000CCCDCECFD0D1D2D3D4D5D6D7D8D9DADB9B
:102E0000DCDDDEDFE0E1E2E3E4E5E6E7E8E9EAEB8A
:102E1000ECEDEEEFF0F1F2F3F4F5F6F7F8F9FAFB7A
:102E2000FCFDFEFF6669726D776172652E62696EE8
:102E3000006669726D776172652E637572000000BD
:102E4000602E000000000010C8000000EC1400001C
:102E5000282F0000C8000010E0120000FC14000041
:102E6000000E270700000000000000000000000026
:102E70000000000000F40100020012010002000046
:102E80000040501D156040000102000109021B00B6
:102E900001010080FA0904000000FE01020309217B
:102EA0000B00F40100020101040309041A0353009A
:102EB0006D006F006F0074006800690065005700C6
:102EC000610072006500120353006D006F006F0017
:102ED00074006800690065001A0353006D006F00FC
:102EE0006F0074006800690065002000440046001F
:102EF00055000000242E0000312E000000000000CC
:102F000000000000000000000000000000000000C1
:102F100000000000000000000000000000000000B1
:082F20000000000000000000A9
:04000005000000CD2A
:00000001FF
